{
  "transactions": [
    {
      "hash": "0xd16bfae99543c29c6cb31b1625461d198de504e0ed4ec51bb29292fb9a30156d",
      "transactionType": "CALL",
      "contractName": null,
      "contractAddress": "0x1c7d4b196cb0c7b01d743fbc6116a902379c7238",
      "function": "approve(address,uint256)",
      "arguments": [
        "0x5E189A78d6310A49762756f30cc27B60d58764c0",
        "100000"
      ],
      "transaction": {
        "from": "0x24cca8460f8b602c299a02103f74ddd1391d0aba",
        "to": "0x1c7d4b196cb0c7b01d743fbc6116a902379c7238",
        "gas": "0x12b1b",
        "value": "0x0",
        "input": "0x095ea7b30000000000000000000000005e189a78d6310a49762756f30cc27b60d58764c000000000000000000000000000000000000000000000000000000000000186a0",
        "nonce": "0x10",
        "chainId": "0xaa36a7"
      },
      "additionalContracts": [],
      "isFixedGasLimit": false
    },
    {
      "hash": "0x0d61580a95060837d4fe8fedbb0cc80d876d93caa74fce60bcbd4442600c24bc",
      "transactionType": "CALL",
      "contractName": null,
      "contractAddress": "0x5e189a78d6310a49762756f30cc27b60d58764c0",
      "function": "sendIntent(uint64,address,address,(bytes32,uint64,address,address,uint256,address,uint8,bytes,uint256))",
      "arguments": [
        "10344971235874465080",
        "0x791430aFc3bd2C2a1A4dd59d4F3d3608A87a1317",
        "0x1c7D4B196Cb0C7B01d743Fbc6116a902379C7238",
        "(0xc0eaac79e6fdc47f8dec694f7334be141ef8adb803763e297f71431b6528e7f3, 16015286601757825753, 0x24cCA8460F8B602C299A02103f74dDd1391D0ABa, 0x036CbD53842c5426634e7929541eC2318f3dCF7e, 100000, 0x585a3701F30C27E2fafe69eb8bc34DA5a8107762, 0, 0x, 1767877824)"
      ],
      "transaction": {
        "from": "0x24cca8460f8b602c299a02103f74ddd1391d0aba",
        "to": "0x5e189a78d6310a49762756f30cc27b60d58764c0",
        "gas": "0x821df",
        "value": "0x48e867f50cf1",
        "input": "0xf7cc807c0000000000000000000000000000000000000000000000008f90b8876dee6538000000000000000000000000791430afc3bd2c2a1a4dd59d4f3d3608a87a13170000000000000000000000001c7d4b196cb0c7b01d743fbc6116a902379c72380000000000000000000000000000000000000000000000000000000000000080c0eaac79e6fdc47f8dec694f7334be141ef8adb803763e297f71431b6528e7f3000000000000000000000000000000000000000000000000de41ba4fc9d91ad900000000000000000000000024cca8460f8b602c299a02103f74ddd1391d0aba000000000000000000000000036cbd53842c5426634e7929541ec2318f3dcf7e00000000000000000000000000000000000000000000000000000000000186a0000000000000000000000000585a3701f30c27e2fafe69eb8bc34da5a81077620000000000000000000000000000000000000000000000000000000000000000000000000000000000000000000000000000000000000000000000000000012000000000000000000000000000000000000000000000000000000000695facc00000000000000000000000000000000000000000000000000000000000000000",
        "nonce": "0x11",
        "chainId": "0xaa36a7"
      },
      "additionalContracts": [],
      "isFixedGasLimit": false
    }
  ],
  "receipts": [
    {
      "status": "0x1",
      "cumulativeGasUsed": "0x2d4292",
      "logs": [
        {
          "address": "0x1c7d4b196cb0c7b01d743fbc6116a902379c7238",
          "topics": [
            "0x8c5be1e5ebec7d5bd14f71427d1e84f3dd0314c0f7b2291e5b200ac8c7c3b925",
            "0x00000000000000000000000024cca8460f8b602c299a02103f74ddd1391d0aba",
            "0x0000000000000000000000005e189a78d6310a49762756f30cc27b60d58764c0"
          ],
          "data": "0x00000000000000000000000000000000000000000000000000000000000186a0",
          "blockHash": "0x35e5d327f1dae13d7c3af0081adee6828ce45fd9c5557968ad61cee069891d3b",
          "blockNumber": "0x98a0fb",
          "blockTimestamp": "0x695f9ec8",
          "transactionHash": "0x0d61580a95060837d4fe8fedbb0cc80d876d93caa74fce60bcbd4442600c24bc",
          "transactionIndex": "0x14",
          "logIndex": "0x15",
          "removed": false
        }
      ],
      "logsBloom": "0x00000000000000000000000000000000000000000000000000000000000200000000000000000000000000000000000000000000000000000040000000200000004000000000000000000000000000000000000000000000000000000000000000000000000000000000000000000000000002000000000000000000000800000000000000100000000000000000000000000000000000000000000000000000020000000000000000000000000000000040000000000000000000000000000000000000000000000000000000000000000000000000000000000000000000000010000000000000000010000000000000000000001000000000000000000000",
      "type": "0x2",
      "transactionHash": "0x0d61580a95060837d4fe8fedbb0cc80d876d93caa74fce60bcbd4442600c24bc",
      "transactionIndex": "0x14",
      "blockHash": "0x35e5d327f1dae13d7c3af0081adee6828ce45fd9c5557968ad61cee069891d3b",
      "blockNumber": "0x98a0fb",
      "gasUsed": "0xd88d",
      "effectiveGasPrice": "0x3b9aca22",
      "from": "0x24cca8460f8b602c299a02103f74ddd1391d0aba",
      "to": "0x1c7d4b196cb0c7b01d743fbc6116a902379c7238",
      "contractAddress": null
    },
    {
      "status": "0x1",
      "cumulativeGasUsed": "0x33b742",
      "logs": [
        {
          "address": "0x1c7d4b196cb0c7b01d743fbc6116a902379c7238",
          "topics": [
            "0xddf252ad1be2c89b69c2b068fc378daa952ba7f163c4a11628f55a4df523b3ef",
            "0x00000000000000000000000024cca8460f8b602c299a02103f74ddd1391d0aba",
            "0x0000000000000000000000005e189a78d6310a49762756f30cc27b60d58764c0"
          ],
          "data": "0x00000000000000000000000000000000000000000000000000000000000186a0",
          "blockHash": "0x35e5d327f1dae13d7c3af0081adee6828ce45fd9c5557968ad61cee069891d3b",
          "blockNumber": "0x98a0fb",
          "blockTimestamp": "0x695f9ec8",
          "transactionHash": "0xd16bfae99543c29c6cb31b1625461d198de504e0ed4ec51bb29292fb9a30156d",
          "transactionIndex": "0x16",
          "logIndex": "0x17",
          "removed": false
        },
        {
          "address": "0x1c7d4b196cb0c7b01d743fbc6116a902379c7238",
          "topics": [
            "0x8c5be1e5ebec7d5bd14f71427d1e84f3dd0314c0f7b2291e5b200ac8c7c3b925",
            "0x0000000000000000000000005e189a78d6310a49762756f30cc27b60d58764c0",
            "0x0000000000000000000000000bf3de8c5d3e8a2b34d2beeb17abfcebaf363a59"
          ],
          "data": "0x0000000000000000000000000000000000000000000000000000000000000000",
          "blockHash": "0x35e5d327f1dae13d7c3af0081adee6828ce45fd9c5557968ad61cee069891d3b",
          "blockNumber": "0x98a0fb",
          "blockTimestamp": "0x695f9ec8",
          "transactionHash": "0xd16bfae99543c29c6cb31b1625461d198de504e0ed4ec51bb29292fb9a30156d",
          "transactionIndex": "0x16",
          "logIndex": "0x18",
          "removed": false
        },
        {
          "address": "0x1c7d4b196cb0c7b01d743fbc6116a902379c7238",
          "topics": [
            "0x8c5be1e5ebec7d5bd14f71427d1e84f3dd0314c0f7b2291e5b200ac8c7c3b925",
            "0x0000000000000000000000005e189a78d6310a49762756f30cc27b60d58764c0",
            "0x0000000000000000000000000bf3de8c5d3e8a2b34d2beeb17abfcebaf363a59"
          ],
          "data": "0x00000000000000000000000000000000000000000000000000000000000186a0",
          "blockHash": "0x35e5d327f1dae13d7c3af0081adee6828ce45fd9c5557968ad61cee069891d3b",
          "blockNumber": "0x98a0fb",
          "blockTimestamp": "0x695f9ec8",
          "transactionHash": "0xd16bfae99543c29c6cb31b1625461d198de504e0ed4ec51bb29292fb9a30156d",
          "transactionIndex": "0x16",
          "logIndex": "0x19",
          "removed": false
        },
        {
          "address": "0x097d90c9d3e0b50ca60e1ae45f6a81010f9fb534",
          "topics": [
            "0xe1fffcc4923d04b559f4d29a8bfc6cda04eb5b0d3c460751c2402c5c5cc9109c",
            "0x0000000000000000000000000bf3de8c5d3e8a2b34d2beeb17abfcebaf363a59"
          ],
          "data": "0x000000000000000000000000000000000000000000000000000048e867f50cf1",
          "blockHash": "0x35e5d327f1dae13d7c3af0081adee6828ce45fd9c5557968ad61cee069891d3b",
          "blockNumber": "0x98a0fb",
          "blockTimestamp": "0x695f9ec8",
          "transactionHash": "0xd16bfae99543c29c6cb31b1625461d198de504e0ed4ec51bb29292fb9a30156d",
          "transactionIndex": "0x16",
          "logIndex": "0x1a",
          "removed": false
        },
        {
          "address": "0x097d90c9d3e0b50ca60e1ae45f6a81010f9fb534",
          "topics": [
            "0xddf252ad1be2c89b69c2b068fc378daa952ba7f163c4a11628f55a4df523b3ef",
            "0x0000000000000000000000000bf3de8c5d3e8a2b34d2beeb17abfcebaf363a59",
            "0x0000000000000000000000008f35b097022135e0f46831f798a240cc8c4b0b01"
          ],
          "data": "0x000000000000000000000000000000000000000000000000000048e867f50cf1",
          "blockHash": "0x35e5d327f1dae13d7c3af0081adee6828ce45fd9c5557968ad61cee069891d3b",
          "blockNumber": "0x98a0fb",
          "blockTimestamp": "0x695f9ec8",
          "transactionHash": "0xd16bfae99543c29c6cb31b1625461d198de504e0ed4ec51bb29292fb9a30156d",
          "transactionIndex": "0x16",
          "logIndex": "0x1b",
          "removed": false
        },
        {
          "address": "0x1c7d4b196cb0c7b01d743fbc6116a902379c7238",
          "topics": [
            "0xddf252ad1be2c89b69c2b068fc378daa952ba7f163c4a11628f55a4df523b3ef",
            "0x0000000000000000000000005e189a78d6310a49762756f30cc27b60d58764c0",
            "0x00000000000000000000000002eef4b366225362180d704c917c50f6c46af9e0"
          ],
          "data": "0x00000000000000000000000000000000000000000000000000000000000186a0",
          "blockHash": "0x35e5d327f1dae13d7c3af0081adee6828ce45fd9c5557968ad61cee069891d3b",
          "blockNumber": "0x98a0fb",
          "blockTimestamp": "0x695f9ec8",
          "transactionHash": "0xd16bfae99543c29c6cb31b1625461d198de504e0ed4ec51bb29292fb9a30156d",
          "transactionIndex": "0x16",
          "logIndex": "0x1c",
          "removed": false
        },
        {
          "address": "0x02eef4b366225362180d704c917c50f6c46af9e0",
          "topics": [
            "0xff0133389f9bb82d5b9385826160eaf2328039f6fa950eeb8cf0836da8178944",
            "0x0000000000000000000000000000000000000000000000008f90b8876dee6538"
          ],
          "data": "0x0000000000000000000000001c7d4b196cb0c7b01d743fbc6116a902379c723800000000000000000000000000000000000000000000000000000000000186a0",
          "blockHash": "0x35e5d327f1dae13d7c3af0081adee6828ce45fd9c5557968ad61cee069891d3b",
          "blockNumber": "0x98a0fb",
          "blockTimestamp": "0x695f9ec8",
          "transactionHash": "0xd16bfae99543c29c6cb31b1625461d198de504e0ed4ec51bb29292fb9a30156d",
          "transactionIndex": "0x16",
          "logIndex": "0x1d",
          "removed": false
        },
        {
          "address": "0x1c7d4b196cb0c7b01d743fbc6116a902379c7238",
          "topics": [
            "0xddf252ad1be2c89b69c2b068fc378daa952ba7f163c4a11628f55a4df523b3ef",
            "0x00000000000000000000000002eef4b366225362180d704c917c50f6c46af9e0",
            "0x000000000000000000000000e997d7d2f6e065a9a93fa2175e878fb9081f1f0a"
          ],
          "data": "0x00000000000000000000000000000000000000000000000000000000000186a0",
          "blockHash": "0x35e5d327f1dae13d7c3af0081adee6828ce45fd9c5557968ad61cee069891d3b",
          "blockNumber": "0x98a0fb",
          "blockTimestamp": "0x695f9ec8",
          "transactionHash": "0xd16bfae99543c29c6cb31b1625461d198de504e0ed4ec51bb29292fb9a30156d",
          "transactionIndex": "0x16",
          "logIndex": "0x1e",
          "removed": false
        },
        {
          "address": "0x1c7d4b196cb0c7b01d743fbc6116a902379c7238",
          "topics": [
            "0xcc16f5dbb4873280815c1ee09dbd06736cffcc184412cf7a71a0fdb75d397ca5",
            "0x000000000000000000000000e997d7d2f6e065a9a93fa2175e878fb9081f1f0a"
          ],
          "data": "0x00000000000000000000000000000000000000000000000000000000000186a0",
          "blockHash": "0x35e5d327f1dae13d7c3af0081adee6828ce45fd9c5557968ad61cee069891d3b",
          "blockNumber": "0x98a0fb",
          "blockTimestamp": "0x695f9ec8",
          "transactionHash": "0xd16bfae99543c29c6cb31b1625461d198de504e0ed4ec51bb29292fb9a30156d",
          "transactionIndex": "0x16",
          "logIndex": "0x1f",
          "removed": false
        },
        {
          "address": "0x1c7d4b196cb0c7b01d743fbc6116a902379c7238",
          "topics": [
            "0xddf252ad1be2c89b69c2b068fc378daa952ba7f163c4a11628f55a4df523b3ef",
            "0x000000000000000000000000e997d7d2f6e065a9a93fa2175e878fb9081f1f0a",
            "0x0000000000000000000000000000000000000000000000000000000000000000"
          ],
          "data": "0x00000000000000000000000000000000000000000000000000000000000186a0",
          "blockHash": "0x35e5d327f1dae13d7c3af0081adee6828ce45fd9c5557968ad61cee069891d3b",
          "blockNumber": "0x98a0fb",
          "blockTimestamp": "0x695f9ec8",
          "transactionHash": "0xd16bfae99543c29c6cb31b1625461d198de504e0ed4ec51bb29292fb9a30156d",
          "transactionIndex": "0x16",
          "logIndex": "0x20",
          "removed": false
        },
        {
          "address": "0x7865fafc2db2093669d92c0f33aeef291086befd",
          "topics": [
            "0x8c5261668696ce22758910d05bab8f186d6eb247ceac2af2e82c7dc17669b036"
          ],
          "data": "0x000000000000000000000000000000000000000000000000000000000000002000000000000000000000000000000000000000000000000000000000000000f80000000000000000000000060000000000096bca0000000000000000000000009f3b8679c73c2fef8b59b4f3444d4e156fb70aa50000000000000000000000009f3b8679c73c2fef8b59b4f3444d4e156fb70aa50000000000000000000000009a6238e0bde262d1553cba95a3f69a1741bef7a3000000000000000000000000000000001c7d4b196cb0c7b01d743fbc6116a902379c7238000000000000000000000000791430afc3bd2c2a1a4dd59d4f3d3608a87a131700000000000000000000000000000000000000000000000000000000000186a000000000000000000000000002eef4b366225362180d704c917c50f6c46af9e00000000000000000",
          "blockHash": "0x35e5d327f1dae13d7c3af0081adee6828ce45fd9c5557968ad61cee069891d3b",
          "blockNumber": "0x98a0fb",
          "blockTimestamp": "0x695f9ec8",
          "transactionHash": "0xd16bfae99543c29c6cb31b1625461d198de504e0ed4ec51bb29292fb9a30156d",
          "transactionIndex": "0x16",
          "logIndex": "0x21",
          "removed": false
        },
        {
          "address": "0x9f3b8679c73c2fef8b59b4f3444d4e156fb70aa5",
          "topics": [
            "0x2fa9ca894982930190727e75500a97d8dc500233a5065e0f3126c48fbe0343c0",
            "0x0000000000000000000000000000000000000000000000000000000000096bca",
            "0x0000000000000000000000001c7d4b196cb0c7b01d743fbc6116a902379c7238",
            "0x00000000000000000000000002eef4b366225362180d704c917c50f6c46af9e0"
          ],
          "data": "0x00000000000000000000000000000000000000000000000000000000000186a0000000000000000000000000791430afc3bd2c2a1a4dd59d4f3d3608a87a131700000000000000000000000000000000000000000000000000000000000000060000000000000000000000009f3b8679c73c2fef8b59b4f3444d4e156fb70aa50000000000000000000000009a6238e0bde262d1553cba95a3f69a1741bef7a3",
          "blockHash": "0x35e5d327f1dae13d7c3af0081adee6828ce45fd9c5557968ad61cee069891d3b",
          "blockNumber": "0x98a0fb",
          "blockTimestamp": "0x695f9ec8",
          "transactionHash": "0xd16bfae99543c29c6cb31b1625461d198de504e0ed4ec51bb29292fb9a30156d",
          "transactionIndex": "0x16",
          "logIndex": "0x22",
          "removed": false
        },
        {
          "address": "0x02eef4b366225362180d704c917c50f6c46af9e0",
          "topics": [
            "0xf33bc26b4413b0e7f19f1ea739fdf99098c0061f1f87d954b11f5293fad9ae10",
            "0x0000000000000000000000000000000000000000000000008f90b8876dee6538"
          ],
          "data": "0x0000000000000000000000001c7d4b196cb0c7b01d743fbc6116a902379c72380000000000000000000000008f35b097022135e0f46831f798a240cc8c4b0b0100000000000000000000000000000000000000000000000000000000000186a0",
          "blockHash": "0x35e5d327f1dae13d7c3af0081adee6828ce45fd9c5557968ad61cee069891d3b",
          "blockNumber": "0x98a0fb",
          "blockTimestamp": "0x695f9ec8",
          "transactionHash": "0xd16bfae99543c29c6cb31b1625461d198de504e0ed4ec51bb29292fb9a30156d",
          "transactionIndex": "0x16",
          "logIndex": "0x23",
          "removed": false
        },
        {
          "address": "0x8f35b097022135e0f46831f798a240cc8c4b0b01",
          "topics": [
            "0xd0c3c799bf9e2639de44391e7f524d229b2b55f5b1ea94b2bf7da42f7243dddd"
          ],
          "data": "0x0000000000000000000000000000000000000000000000000000000000000020000000000000000000000000000000000000000000000000de41ba4fc9d91ad90000000000000000000000005e189a78d6310a49762756f30cc27b60d58764c0000000000000000000000000791430afc3bd2c2a1a4dd59d4f3d3608a87a131700000000000000000000000000000000000000000000000000000000000060ae000000000000000000000000000000000000000000000000000000000007a12000000000000000000000000000000000000000000000000000000000000000000000000000000000000000000000000000000000000000000000000000000001000000000000000000000000097d90c9d3e0b50ca60e1ae45f6a81010f9fb534000000000000000000000000000000000000000000000000000048e867f50cf100000000000000000000000000000000000000000000000000000000000001a000000000000000000000000000000000000000000000000000000000000003200000000000000000000000000000000000000000000000000000000000000380cd5bb85acc91ca6bf76cdce60a2a79974a4037a4ec2f5949a9e58d2c21a6b2a900000000000000000000000000000000000000000000000000000000000001600000000000000000000000000000000000000000000000000000000000000020c0eaac79e6fdc47f8dec694f7334be141ef8adb803763e297f71431b6528e7f3000000000000000000000000000000000000000000000000de41ba4fc9d91ad900000000000000000000000024cca8460f8b602c299a02103f74ddd1391d0aba000000000000000000000000036cbd53842c5426634e7929541ec2318f3dcf7e00000000000000000000000000000000000000000000000000000000000186a0000000000000000000000000585a3701f30c27e2fafe69eb8bc34da5a81077620000000000000000000000000000000000000000000000000000000000000000000000000000000000000000000000000000000000000000000000000000012000000000000000000000000000000000000000000000000000000000695facc0000000000000000000000000000000000000000000000000000000000000000000000000000000000000000000000000000000000000000000000000000000010000000000000000000000001c7d4b196cb0c7b01d743fbc6116a902379c723800000000000000000000000000000000000000000000000000000000000186a00000000000000000000000000000000000000000000000000000000000000001000000000000000000000000000000000000000000000000000000000000002000000000000000000000000000000000000000000000000000000000000001800000000000000000000000000000000000000000000000000000000000000020000000000000000000000000000000000000000000000000000000000000008000000000000000000000000000000000000000000000000000000000000000c00000000000000000000000000000000000000000000000000000000000000100000000000000000000000000000000000000000000000000000000000002bf20000000000000000000000000000000000000000000000000000000000000002000000000000000000000000002eef4b366225362180d704c917c50f6c46af9e00000000000000000000000000000000000000000000000000000000000000020000000000000000000000000036cbd53842c5426634e7929541ec2318f3dcf7e00000000000000000000000000000000000000000000000000000000000000400000000000000000000000000000000000000000000000000000000000096bca0000000000000000000000000000000000000000000000000000000000000000",
          "blockHash": "0x35e5d327f1dae13d7c3af0081adee6828ce45fd9c5557968ad61cee069891d3b",
          "blockNumber": "0x98a0fb",
          "blockTimestamp": "0x695f9ec8",
          "transactionHash": "0xd16bfae99543c29c6cb31b1625461d198de504e0ed4ec51bb29292fb9a30156d",
          "transactionIndex": "0x16",
          "logIndex": "0x24",
          "removed": false
        },
        {
          "address": "0x5e189a78d6310a49762756f30cc27b60d58764c0",
          "topics": [
            "0xd93559d89afe77f297f69980f1c542b186347f1812e00f5988ffb050092f70be",
            "0xcd5bb85acc91ca6bf76cdce60a2a79974a4037a4ec2f5949a9e58d2c21a6b2a9",
            "0xc0eaac79e6fdc47f8dec694f7334be141ef8adb803763e297f71431b6528e7f3"
          ],
          "data": "0x0000000000000000000000000000000000000000000000008f90b8876dee653800000000000000000000000024cca8460f8b602c299a02103f74ddd1391d0aba0000000000000000000000001c7d4b196cb0c7b01d743fbc6116a902379c7238000000000000000000000000036cbd53842c5426634e7929541ec2318f3dcf7e00000000000000000000000000000000000000000000000000000000000186a0",
          "blockHash": "0x35e5d327f1dae13d7c3af0081adee6828ce45fd9c5557968ad61cee069891d3b",
          "blockNumber": "0x98a0fb",
          "blockTimestamp": "0x695f9ec8",
          "transactionHash": "0xd16bfae99543c29c6cb31b1625461d198de504e0ed4ec51bb29292fb9a30156d",
          "transactionIndex": "0x16",
          "logIndex": "0x25",
          "removed": false
        }
      ],
      "logsBloom": "0x000000000000400000000000000000000000000000000010000000000083000000000080000002000000000000000000004001100000440000400000002000001040000000000000000000088000000000000004000002000002000280002000000000000221804000000000100008200800020008400002001000101008000040000000001010040000000000000000000000010000000000008000202400000a4000000000090400010100010000000040008000000000000100401000000000004002080000100400008000080000000100001000000200000004000020000010000440008020000010000000000004080000001000400000000000000000",
      "type": "0x2",
      "transactionHash": "0xd16bfae99543c29c6cb31b1625461d198de504e0ed4ec51bb29292fb9a30156d",
      "transactionIndex": "0x16",
      "blockHash": "0x35e5d327f1dae13d7c3af0081adee6828ce45fd9c5557968ad61cee069891d3b",
      "blockNumber": "0x98a0fb",
      "gasUsed": "0x5e33e",
      "effectiveGasPrice": "0x3b9aca22",
      "from": "0x24cca8460f8b602c299a02103f74ddd1391d0aba",
      "to": "0x5e189a78d6310a49762756f30cc27b60d58764c0",
      "contractAddress": null
    }
  ],
  "libraries": [],
  "pending": [],
  "returns": {},
  "timestamp": 1767874248741,
  "chain": 11155111,
  "commit": "0cb6b6e"
}