{
  "transactions": [
    {
      "hash": "0x37ca8bfdc0d8cb7939216f679226a39f11754cb2daa5a12e6be83e5b8defc0b8",
      "transactionType": "CALL",
      "contractName": null,
      "contractAddress": "0x791430afc3bd2c2a1a4dd59d4f3d3608a87a1317",
      "function": "setAllowedSender(uint64,address,bool)",
      "arguments": [
        "16015286601757825753",
        "0x5E189A78d6310A49762756f30cc27B60d58764c0",
        "true"
      ],
      "transaction": {
        "from": "0x24cca8460f8b602c299a02103f74ddd1391d0aba",
        "to": "0x791430afc3bd2c2a1a4dd59d4f3d3608a87a1317",
        "gas": "0x108f8",
        "value": "0x0",
        "input": "0x2d1dd804000000000000000000000000000000000000000000000000de41ba4fc9d91ad90000000000000000000000005e189a78d6310a49762756f30cc27b60d58764c00000000000000000000000000000000000000000000000000000000000000001",
        "nonce": "0x7",
        "chainId": "0x14a34"
      },
      "additionalContracts": [],
      "isFixedGasLimit": false
    }
  ],
  "receipts": [
    {
      "status": "0x1",
      "cumulativeGasUsed": "0x694e75",
      "logs": [
        {
          "address": "0x791430afc3bd2c2a1a4dd59d4f3d3608a87a1317",
          "topics": [
            "0x6dd42280483b35337a857768a6274f8d4af2f68284d2b1e32057ed5a619a5551",
            "0x000000000000000000000000000000000000000000000000de41ba4fc9d91ad9",
            "0x0000000000000000000000005e189a78d6310a49762756f30cc27b60d58764c0"
          ],
          "data": "0x0000000000000000000000000000000000000000000000000000000000000001",
          "blockHash": "0xec9fd8fd1ef365ce1cefe850e3a4d4126d6a183f1c74a9845c1469b6af1fac46",
          "blockNumber": "0x2261fdc",
          "blockTimestamp": "0x695f9e98",
          "transactionHash": "0x37ca8bfdc0d8cb7939216f679226a39f11754cb2daa5a12e6be83e5b8defc0b8",
          "transactionIndex": "0x10",
          "logIndex": "0x35",
          "removed": false
        }
      ],
      "logsBloom": "0x00000000000000000000000000000000000000000000000000000000000000000000000000004000000000000000000000000000000000000000000000000000004000000000000000000000000000000000000000000000000000000000000000000000000000000000000800010000000002000000000000100000000800000000000000000000000000000000000000000020000000000000000000000000000000000000000010000000000000000000000000000000000000000000000000000000000000000000000000000000000008000000000000000000000000000000000000000000000000000000002004000000000000000000000000000000",
      "type": "0x2",
      "transactionHash": "0x37ca8bfdc0d8cb7939216f679226a39f11754cb2daa5a12e6be83e5b8defc0b8",
      "transactionIndex": "0x10",
      "blockHash": "0xec9fd8fd1ef365ce1cefe850e3a4d4126d6a183f1c74a9845c1469b6af1fac46",
      "blockNumber": "0x2261fdc",
      "gasUsed": "0xbfd6",
      "effectiveGasPrice": "0x5f99eda",
      "blobGasUsed": "0x79e0",
      "from": "0x24cca8460f8b602c299a02103f74ddd1391d0aba",
      "to": "0x791430afc3bd2c2a1a4dd59d4f3d3608a87a1317",
      "contractAddress": null,
      "daFootprintGasScalar": "0x138",
      "l1BaseFeeScalar": "0x44d",
      "l1BlobBaseFee": "0x1",
      "l1BlobBaseFeeScalar": "0xa118b",
      "l1Fee": "0x55",
      "l1GasPrice": "0xb",
      "l1GasUsed": "0x640"
    }
  ],
  "libraries": [],
  "pending": [],
  "returns": {},
  "timestamp": 1767874201021,
  "chain": 84532,
  "commit": "0cb6b6e"
}